{
  "contractName": "Login",
  "abi": [
    {
      "anonymous": false,
      "inputs": [
        {
          "indexed": false,
          "name": "sender",
          "type": "address"
        },
        {
          "indexed": false,
          "name": "challenge",
          "type": "string"
        }
      ],
      "name": "LoginAttempt",
      "type": "event",
      "signature": "0xdeb017956c894eba079e6a630f5cfec256256dc05616ad89f1eb825abef45963"
    },
    {
      "constant": false,
      "inputs": [
        {
          "name": "challenge",
          "type": "string"
        }
      ],
      "name": "login",
      "outputs": [],
      "payable": false,
      "stateMutability": "nonpayable",
      "type": "function",
      "signature": "0x3a7d280c"
    }
  ],
  "bytecode": "0x608060405234801561001057600080fd5b506101f6806100206000396000f3fe6080604052600436106100405763ffffffff7c01000000000000000000000000000000000000000000000000000000006000350416633a7d280c8114610045575b600080fd5b34801561005157600080fd5b506100f86004803603602081101561006857600080fd5b81019060208101813564010000000081111561008357600080fd5b82018360208201111561009557600080fd5b803590602001918460018302840111640100000000831117156100b757600080fd5b91908080601f0160208091040260200160405190810160405280939291908181526020018383808284376000920191909152509295506100fa945050505050565b005b7fdeb017956c894eba079e6a630f5cfec256256dc05616ad89f1eb825abef459633382604051808373ffffffffffffffffffffffffffffffffffffffff1673ffffffffffffffffffffffffffffffffffffffff16815260200180602001828103825283818151815260200191508051906020019080838360005b8381101561018c578181015183820152602001610174565b50505050905090810190601f1680156101b95780820380516001836020036101000a031916815260200191505b50935050505060405180910390a15056fea165627a7a72305820e703692bea47deb5ac9407356347460a7d7997404796cda28b5a4f85d3c9cf310029",
  "source": "pragma solidity ^0.5.0; // phiên bản sử dụng\r\n\r\ncontract Login {\r\n  \r\n    event LoginAttempt(address sender, string challenge);\r\n\r\n    function login(string memory challenge) public {\r\n        emit LoginAttempt(msg.sender, challenge);\r\n    }\r\n\r\n}\r\n",
  "sourcePath": "F:/do an/EthAuthentication/Ethereum-login/smartcontract/contracts/Login.sol",
  "compiler": {
    "name": "solc",
    "version": "0.5.0+commit.1d4f565a.Emscripten.clang"
  },
  "schemaVersion": "3.0.2",
  "updatedAt": "2021-06-10T12:04:42.572Z",
  "devdoc": {
    "methods": {}
  },
  "userdoc": {
    "methods": {}
  }
}